{
  "_format": "hh-sol-artifact-1",
  "contractName": "ProofLedger",
  "sourceName": "contracts/ProofLedger.sol",
  "abi": [
    {
      "inputs": [],
      "name": "AlreadyAnchored",
      "type": "error"
    },
    {
      "inputs": [],
      "name": "AlreadyAttested",
      "type": "error"
    },
    {
      "inputs": [],
      "name": "CannotAttestOwnDocument",
      "type": "error"
    },
    {
      "inputs": [],
      "name": "EmptyTitle",
      "type": "error"
    },
    {
      "inputs": [],
      "name": "NotFound",
      "type": "error"
    },
    {
      "anonymous": false,
      "inputs": [
        {
          "indexed": true,
          "internalType": "bytes32",
          "name": "hash",
          "type": "bytes32"
        },
        {
          "indexed": true,
          "internalType": "address",
          "name": "owner",
          "type": "address"
        },
        {
          "indexed": false,
          "internalType": "string",
          "name": "title",
          "type": "string"
        },
        {
          "indexed": false,
          "internalType": "string",
          "name": "docType",
          "type": "string"
        },
        {
          "indexed": false,
          "internalType": "uint256",
          "name": "blockNumber",
          "type": "uint256"
        }
      ],
      "name": "DocumentAnchored",
      "type": "event"
    },
    {
      "anonymous": false,
      "inputs": [
        {
          "indexed": true,
          "internalType": "bytes32",
          "name": "hash",
          "type": "bytes32"
        },
        {
          "indexed": true,
          "internalType": "address",
          "name": "attester",
          "type": "address"
        }
      ],
      "name": "DocumentAttested",
      "type": "event"
    },
    {
      "inputs": [
        {
          "internalType": "bytes32",
          "name": "hash",
          "type": "bytes32"
        },
        {
          "internalType": "string",
          "name": "title",
          "type": "string"
        },
        {
          "internalType": "string",
          "name": "docType",
          "type": "string"
        }
      ],
      "name": "anchorDocument",
      "outputs": [],
      "stateMutability": "nonpayable",
      "type": "function"
    },
    {
      "inputs": [
        {
          "internalType": "bytes32",
          "name": "hash",
          "type": "bytes32"
        },
        {
          "internalType": "string",
          "name": "credentialType",
          "type": "string"
        }
      ],
      "name": "attestDocument",
      "outputs": [],
      "stateMutability": "nonpayable",
      "type": "function"
    },
    {
      "inputs": [
        {
          "internalType": "address",
          "name": "",
          "type": "address"
        }
      ],
      "name": "documentCount",
      "outputs": [
        {
          "internalType": "uint256",
          "name": "",
          "type": "uint256"
        }
      ],
      "stateMutability": "view",
      "type": "function"
    },
    {
      "inputs": [
        {
          "internalType": "bytes32",
          "name": "",
          "type": "bytes32"
        }
      ],
      "name": "documents",
      "outputs": [
        {
          "internalType": "address",
          "name": "owner",
          "type": "address"
        },
        {
          "internalType": "uint256",
          "name": "blockNumber",
          "type": "uint256"
        },
        {
          "internalType": "uint256",
          "name": "timestamp",
          "type": "uint256"
        },
        {
          "internalType": "string",
          "name": "title",
          "type": "string"
        },
        {
          "internalType": "string",
          "name": "docType",
          "type": "string"
        },
        {
          "internalType": "uint256",
          "name": "attestationCount",
          "type": "uint256"
        },
        {
          "internalType": "bool",
          "name": "exists",
          "type": "bool"
        }
      ],
      "stateMutability": "view",
      "type": "function"
    },
    {
      "inputs": [
        {
          "internalType": "address",
          "name": "owner",
          "type": "address"
        },
        {
          "internalType": "uint256",
          "name": "index",
          "type": "uint256"
        }
      ],
      "name": "getOwnerDocument",
      "outputs": [
        {
          "internalType": "bytes32",
          "name": "",
          "type": "bytes32"
        }
      ],
      "stateMutability": "view",
      "type": "function"
    },
    {
      "inputs": [
        {
          "internalType": "bytes32",
          "name": "",
          "type": "bytes32"
        },
        {
          "internalType": "address",
          "name": "",
          "type": "address"
        }
      ],
      "name": "hasAttested",
      "outputs": [
        {
          "internalType": "bool",
          "name": "",
          "type": "bool"
        }
      ],
      "stateMutability": "view",
      "type": "function"
    },
    {
      "inputs": [
        {
          "internalType": "address",
          "name": "",
          "type": "address"
        },
        {
          "internalType": "uint256",
          "name": "",
          "type": "uint256"
        }
      ],
      "name": "ownerDocuments",
      "outputs": [
        {
          "internalType": "bytes32",
          "name": "",
          "type": "bytes32"
        }
      ],
      "stateMutability": "view",
      "type": "function"
    },
    {
      "inputs": [],
      "name": "totalDocuments",
      "outputs": [
        {
          "internalType": "uint256",
          "name": "",
          "type": "uint256"
        }
      ],
      "stateMutability": "view",
      "type": "function"
    },
    {
      "inputs": [
        {
          "internalType": "bytes32",
          "name": "hash",
          "type": "bytes32"
        }
      ],
      "name": "verifyDocument",
      "outputs": [
        {
          "components": [
            {
              "internalType": "address",
              "name": "owner",
              "type": "address"
            },
            {
              "internalType": "uint256",
              "name": "blockNumber",
              "type": "uint256"
            },
            {
              "internalType": "uint256",
              "name": "timestamp",
              "type": "uint256"
            },
            {
              "internalType": "string",
              "name": "title",
              "type": "string"
            },
            {
              "internalType": "string",
              "name": "docType",
              "type": "string"
            },
            {
              "internalType": "uint256",
              "name": "attestationCount",
              "type": "uint256"
            },
            {
              "internalType": "bool",
              "name": "exists",
              "type": "bool"
            }
          ],
          "internalType": "struct ProofLedger.Document",
          "name": "",
          "type": "tuple"
        }
      ],
      "stateMutability": "view",
      "type": "function"
    }
  ],
  "bytecode": "0x608060405234801561001057600080fd5b506116b3806100206000396000f3fe608060405234801561001057600080fd5b50600436106100935760003560e01c8063553181ec11610066578063553181ec1461014a578063ae62d02e14610168578063bfd103fb14610184578063c1f1a8a0146101b4578063fe35089f146101e457610093565b80630c08957b146100985780632b2805db146100c857806331d19f65146100fe5780633728438f1461012e575b600080fd5b6100b260048036038101906100ad9190610d28565b610214565b6040516100bf9190610d81565b60405180910390f35b6100e260048036038101906100dd9190610dc8565b61026f565b6040516100f59796959493929190610ebe565b60405180910390f35b61011860048036038101906101139190610d28565b6103ee565b6040516101259190610d81565b60405180910390f35b61014860048036038101906101439190610fa0565b610413565b005b610152610678565b60405161015f9190611000565b60405180910390f35b610182600480360381019061017d919061101b565b61067e565b005b61019e600480360381019061019991906110b0565b610a0f565b6040516101ab91906110f0565b60405180910390f35b6101ce60048036038101906101c9919061110b565b610a3e565b6040516101db9190611000565b60405180910390f35b6101fe60048036038101906101f99190610dc8565b610a56565b60405161020b9190611252565b60405180910390f35b6000600260008473ffffffffffffffffffffffffffffffffffffffff1673ffffffffffffffffffffffffffffffffffffffff168152602001908152602001600020600083815260200190815260200160002054905092915050565b60006020528060005260406000206000915090508060000160009054906101000a900473ffffffffffffffffffffffffffffffffffffffff16908060010154908060020154908060030180546102c4906112a3565b80601f01602080910402602001604051908101604052809291908181526020018280546102f0906112a3565b801561033d5780601f106103125761010080835404028352916020019161033d565b820191906000526020600020905b81548152906001019060200180831161032057829003601f168201915b505050505090806004018054610352906112a3565b80601f016020809104026020016040519081016040528092919081815260200182805461037e906112a3565b80156103cb5780601f106103a0576101008083540402835291602001916103cb565b820191906000526020600020905b8154815290600101906020018083116103ae57829003601f168201915b5050505050908060050154908060060160009054906101000a900460ff16905087565b6002602052816000526040600020602052806000526040600020600091509150505481565b60008084815260200190815260200160002060060160009054906101000a900460ff1661046c576040517fc5723b5100000000000000000000000000000000000000000000000000000000815260040160405180910390fd5b3373ffffffffffffffffffffffffffffffffffffffff1660008085815260200190815260200160002060000160009054906101000a900473ffffffffffffffffffffffffffffffffffffffff1673ffffffffffffffffffffffffffffffffffffffff1603610506576040517ff93bf5d400000000000000000000000000000000000000000000000000000000815260040160405180910390fd5b6003600084815260200190815260200160002060003373ffffffffffffffffffffffffffffffffffffffff1673ffffffffffffffffffffffffffffffffffffffff16815260200190815260200160002060009054906101000a900460ff161561059b576040517f35d9080500000000000000000000000000000000000000000000000000000000815260040160405180910390fd5b60016003600085815260200190815260200160002060003373ffffffffffffffffffffffffffffffffffffffff1673ffffffffffffffffffffffffffffffffffffffff16815260200190815260200160002060006101000a81548160ff021916908315150217905550600080848152602001908152602001600020600501600081548092919061062a90611303565b91905055503373ffffffffffffffffffffffffffffffffffffffff16837f08cc0929840ec0a769a2f9a25fe3edde2c2559b962e6e7dd39e7141de34d13ad60405160405180910390a3505050565b60045481565b60008086815260200190815260200160002060060160009054906101000a900460ff16156106d8576040517fa0094ce300000000000000000000000000000000000000000000000000000000815260040160405180910390fd5b60008484905003610715576040517fa5bb9bde00000000000000000000000000000000000000000000000000000000815260040160405180910390fd5b6040518060e001604052803373ffffffffffffffffffffffffffffffffffffffff16815260200143815260200142815260200185858080601f016020809104026020016040519081016040528093929190818152602001838380828437600081840152601f19601f82011690508083019250505050505050815260200183838080601f016020809104026020016040519081016040528093929190818152602001838380828437600081840152601f19601f820116905080830192505050505050508152602001600081526020016001151581525060008087815260200190815260200160002060008201518160000160006101000a81548173ffffffffffffffffffffffffffffffffffffffff021916908373ffffffffffffffffffffffffffffffffffffffff1602179055506020820151816001015560408201518160020155606082015181600301908161086c9190611526565b5060808201518160040190816108829190611526565b5060a0820151816005015560c08201518160060160006101000a81548160ff02191690831515021790555090505084600260003373ffffffffffffffffffffffffffffffffffffffff1673ffffffffffffffffffffffffffffffffffffffff1681526020019081526020016000206000600160003373ffffffffffffffffffffffffffffffffffffffff1673ffffffffffffffffffffffffffffffffffffffff16815260200190815260200160002054815260200190815260200160002081905550600160003373ffffffffffffffffffffffffffffffffffffffff1673ffffffffffffffffffffffffffffffffffffffff168152602001908152602001600020600081548092919061099490611303565b9190505550600460008154809291906109ac90611303565b91905055503373ffffffffffffffffffffffffffffffffffffffff16857f5e55bc7fa4a24ba8467c7f3b86bdee361bd4a9e949b874fa19527e8fde3e362d8686868643604051610a00959493929190611634565b60405180910390a35050505050565b60036020528160005260406000206020528060005260406000206000915091509054906101000a900460ff1681565b60016020528060005260406000206000915090505481565b610a5e610c35565b6000808381526020019081526020016000206040518060e00160405290816000820160009054906101000a900473ffffffffffffffffffffffffffffffffffffffff1673ffffffffffffffffffffffffffffffffffffffff1673ffffffffffffffffffffffffffffffffffffffff1681526020016001820154815260200160028201548152602001600382018054610af5906112a3565b80601f0160208091040260200160405190810160405280929190818152602001828054610b21906112a3565b8015610b6e5780601f10610b4357610100808354040283529160200191610b6e565b820191906000526020600020905b815481529060010190602001808311610b5157829003601f168201915b50505050508152602001600482018054610b87906112a3565b80601f0160208091040260200160405190810160405280929190818152602001828054610bb3906112a3565b8015610c005780601f10610bd557610100808354040283529160200191610c00565b820191906000526020600020905b815481529060010190602001808311610be357829003601f168201915b50505050508152602001600582015481526020016006820160009054906101000a900460ff1615151515815250509050919050565b6040518060e00160405280600073ffffffffffffffffffffffffffffffffffffffff16815260200160008152602001600081526020016060815260200160608152602001600081526020016000151581525090565b600080fd5b600080fd5b600073ffffffffffffffffffffffffffffffffffffffff82169050919050565b6000610cbf82610c94565b9050919050565b610ccf81610cb4565b8114610cda57600080fd5b50565b600081359050610cec81610cc6565b92915050565b6000819050919050565b610d0581610cf2565b8114610d1057600080fd5b50565b600081359050610d2281610cfc565b92915050565b60008060408385031215610d3f57610d3e610c8a565b5b6000610d4d85828601610cdd565b9250506020610d5e85828601610d13565b9150509250929050565b6000819050919050565b610d7b81610d68565b82525050565b6000602082019050610d966000830184610d72565b92915050565b610da581610d68565b8114610db057600080fd5b50565b600081359050610dc281610d9c565b92915050565b600060208284031215610dde57610ddd610c8a565b5b6000610dec84828501610db3565b91505092915050565b610dfe81610cb4565b82525050565b610e0d81610cf2565b82525050565b600081519050919050565b600082825260208201905092915050565b60005b83811015610e4d578082015181840152602081019050610e32565b60008484015250505050565b6000601f19601f8301169050919050565b6000610e7582610e13565b610e7f8185610e1e565b9350610e8f818560208601610e2f565b610e9881610e59565b840191505092915050565b60008115159050919050565b610eb881610ea3565b82525050565b600060e082019050610ed3600083018a610df5565b610ee06020830189610e04565b610eed6040830188610e04565b8181036060830152610eff8187610e6a565b90508181036080830152610f138186610e6a565b9050610f2260a0830185610e04565b610f2f60c0830184610eaf565b98975050505050505050565b600080fd5b600080fd5b600080fd5b60008083601f840112610f6057610f5f610f3b565b5b8235905067ffffffffffffffff811115610f7d57610f7c610f40565b5b602083019150836001820283011115610f9957610f98610f45565b5b9250929050565b600080600060408486031215610fb957610fb8610c8a565b5b6000610fc786828701610db3565b935050602084013567ffffffffffffffff811115610fe857610fe7610c8f565b5b610ff486828701610f4a565b92509250509250925092565b60006020820190506110156000830184610e04565b92915050565b60008060008060006060868803121561103757611036610c8a565b5b600061104588828901610db3565b955050602086013567ffffffffffffffff81111561106657611065610c8f565b5b61107288828901610f4a565b9450945050604086013567ffffffffffffffff81111561109557611094610c8f565b5b6110a188828901610f4a565b92509250509295509295909350565b600080604083850312156110c7576110c6610c8a565b5b60006110d585828601610db3565b92505060206110e685828601610cdd565b9150509250929050565b60006020820190506111056000830184610eaf565b92915050565b60006020828403121561112157611120610c8a565b5b600061112f84828501610cdd565b91505092915050565b61114181610cb4565b82525050565b61115081610cf2565b82525050565b600082825260208201905092915050565b600061117282610e13565b61117c8185611156565b935061118c818560208601610e2f565b61119581610e59565b840191505092915050565b6111a981610ea3565b82525050565b600060e0830160008301516111c76000860182611138565b5060208301516111da6020860182611147565b5060408301516111ed6040860182611147565b50606083015184820360608601526112058282611167565b9150506080830151848203608086015261121f8282611167565b91505060a083015161123460a0860182611147565b5060c083015161124760c08601826111a0565b508091505092915050565b6000602082019050818103600083015261126c81846111af565b905092915050565b7f4e487b7100000000000000000000000000000000000000000000000000000000600052602260045260246000fd5b600060028204905060018216806112bb57607f821691505b6020821081036112ce576112cd611274565b5b50919050565b7f4e487b7100000000000000000000000000000000000000000000000000000000600052601160045260246000fd5b600061130e82610cf2565b91507fffffffffffffffffffffffffffffffffffffffffffffffffffffffffffffffff82036113405761133f6112d4565b5b600182019050919050565b7f4e487b7100000000000000000000000000000000000000000000000000000000600052604160045260246000fd5b60008190508160005260206000209050919050565b60006020601f8301049050919050565b600082821b905092915050565b6000600883026113dc7fffffffffffffffffffffffffffffffffffffffffffffffffffffffffffffffff8261139f565b6113e6868361139f565b95508019841693508086168417925050509392505050565b6000819050919050565b600061142361141e61141984610cf2565b6113fe565b610cf2565b9050919050565b6000819050919050565b61143d83611408565b6114516114498261142a565b8484546113ac565b825550505050565b600090565b611466611459565b611471818484611434565b505050565b5b818110156114955761148a60008261145e565b600181019050611477565b5050565b601f8211156114da576114ab8161137a565b6114b48461138f565b810160208510156114c3578190505b6114d76114cf8561138f565b830182611476565b50505b505050565b600082821c905092915050565b60006114fd600019846008026114df565b1980831691505092915050565b600061151683836114ec565b9150826002028217905092915050565b61152f82610e13565b67ffffffffffffffff8111156115485761154761134b565b5b61155282546112a3565b61155d828285611499565b600060209050601f831160018114611590576000841561157e578287015190505b611588858261150a565b8655506115f0565b601f19841661159e8661137a565b60005b828110156115c6578489015182556001820191506020850194506020810190506115a1565b868310156115e357848901516115df601f8916826114ec565b8355505b6001600288020188555050505b505050505050565b82818337600083830152505050565b60006116138385610e1e565b93506116208385846115f8565b61162983610e59565b840190509392505050565b6000606082019050818103600083015261164f818789611607565b90508181036020830152611664818587611607565b90506116736040830184610e04565b969550505050505056fea26469706673582212207ead1b0c051ac12901be28eb8afa777ea86378c512f3f02839cef1f19968ba5864736f6c63430008140033",
  "linkReferences": {},
  "deployedLinkReferences": {}
}