{
  "_format": "hh-sol-artifact-1",
  "contractName": "ProofLedgerCredentials",
  "sourceName": "contracts/ProofLedgerCredentials.sol",
  "abi": [
    {
      "inputs": [],
      "name": "AlreadyIssued",
      "type": "error"
    },
    {
      "inputs": [],
      "name": "AlreadyRevoked",
      "type": "error"
    },
    {
      "inputs": [],
      "name": "NotAuthorized",
      "type": "error"
    },
    {
      "inputs": [],
      "name": "NotFound",
      "type": "error"
    },
    {
      "anonymous": false,
      "inputs": [
        {
          "indexed": true,
          "internalType": "address",
          "name": "issuer",
          "type": "address"
        },
        {
          "indexed": true,
          "internalType": "address",
          "name": "recipient",
          "type": "address"
        },
        {
          "indexed": true,
          "internalType": "bytes32",
          "name": "documentHash",
          "type": "bytes32"
        },
        {
          "indexed": false,
          "internalType": "string",
          "name": "credentialType",
          "type": "string"
        }
      ],
      "name": "CredentialIssued",
      "type": "event"
    },
    {
      "anonymous": false,
      "inputs": [
        {
          "indexed": true,
          "internalType": "address",
          "name": "issuer",
          "type": "address"
        },
        {
          "indexed": true,
          "internalType": "address",
          "name": "recipient",
          "type": "address"
        },
        {
          "indexed": true,
          "internalType": "bytes32",
          "name": "documentHash",
          "type": "bytes32"
        }
      ],
      "name": "CredentialRevoked",
      "type": "event"
    },
    {
      "inputs": [
        {
          "internalType": "address",
          "name": "",
          "type": "address"
        }
      ],
      "name": "credentialCount",
      "outputs": [
        {
          "internalType": "uint256",
          "name": "",
          "type": "uint256"
        }
      ],
      "stateMutability": "view",
      "type": "function"
    },
    {
      "inputs": [
        {
          "internalType": "address",
          "name": "",
          "type": "address"
        },
        {
          "internalType": "bytes32",
          "name": "",
          "type": "bytes32"
        }
      ],
      "name": "credentials",
      "outputs": [
        {
          "internalType": "address",
          "name": "issuer",
          "type": "address"
        },
        {
          "internalType": "address",
          "name": "recipient",
          "type": "address"
        },
        {
          "internalType": "bytes32",
          "name": "documentHash",
          "type": "bytes32"
        },
        {
          "internalType": "string",
          "name": "credentialType",
          "type": "string"
        },
        {
          "internalType": "string",
          "name": "issuerName",
          "type": "string"
        },
        {
          "internalType": "uint256",
          "name": "issuedAt",
          "type": "uint256"
        },
        {
          "internalType": "bool",
          "name": "revoked",
          "type": "bool"
        },
        {
          "internalType": "bool",
          "name": "exists",
          "type": "bool"
        }
      ],
      "stateMutability": "view",
      "type": "function"
    },
    {
      "inputs": [
        {
          "internalType": "address",
          "name": "recipient",
          "type": "address"
        },
        {
          "internalType": "bytes32",
          "name": "documentHash",
          "type": "bytes32"
        }
      ],
      "name": "getCredential",
      "outputs": [
        {
          "components": [
            {
              "internalType": "address",
              "name": "issuer",
              "type": "address"
            },
            {
              "internalType": "address",
              "name": "recipient",
              "type": "address"
            },
            {
              "internalType": "bytes32",
              "name": "documentHash",
              "type": "bytes32"
            },
            {
              "internalType": "string",
              "name": "credentialType",
              "type": "string"
            },
            {
              "internalType": "string",
              "name": "issuerName",
              "type": "string"
            },
            {
              "internalType": "uint256",
              "name": "issuedAt",
              "type": "uint256"
            },
            {
              "internalType": "bool",
              "name": "revoked",
              "type": "bool"
            },
            {
              "internalType": "bool",
              "name": "exists",
              "type": "bool"
            }
          ],
          "internalType": "struct ProofLedgerCredentials.Credential",
          "name": "",
          "type": "tuple"
        }
      ],
      "stateMutability": "view",
      "type": "function"
    },
    {
      "inputs": [
        {
          "internalType": "address",
          "name": "recipient",
          "type": "address"
        },
        {
          "internalType": "bytes32",
          "name": "documentHash",
          "type": "bytes32"
        }
      ],
      "name": "isValidCredential",
      "outputs": [
        {
          "internalType": "bool",
          "name": "",
          "type": "bool"
        }
      ],
      "stateMutability": "view",
      "type": "function"
    },
    {
      "inputs": [
        {
          "internalType": "address",
          "name": "recipient",
          "type": "address"
        },
        {
          "internalType": "bytes32",
          "name": "documentHash",
          "type": "bytes32"
        },
        {
          "internalType": "string",
          "name": "credentialType",
          "type": "string"
        },
        {
          "internalType": "string",
          "name": "issuerName",
          "type": "string"
        }
      ],
      "name": "issueCredential",
      "outputs": [],
      "stateMutability": "nonpayable",
      "type": "function"
    },
    {
      "inputs": [
        {
          "internalType": "address",
          "name": "recipient",
          "type": "address"
        },
        {
          "internalType": "bytes32",
          "name": "documentHash",
          "type": "bytes32"
        }
      ],
      "name": "revokeCredential",
      "outputs": [],
      "stateMutability": "nonpayable",
      "type": "function"
    }
  ],
  "bytecode": "0x608060405234801561001057600080fd5b5061179e806100206000396000f3fe608060405234801561001057600080fd5b50600436106100625760003560e01c80633042f5a4146100675780635d6a2c6b146100975780636372de9a146100c757806369989ffb146100fe578063a219550f1461012e578063e5dca78e1461014a575b600080fd5b610081600480360381019061007c9190610f08565b610166565b60405161008e91906110e1565b60405180910390f35b6100b160048036038101906100ac9190610f08565b6103eb565b6040516100be9190611112565b60405180910390f35b6100e160048036038101906100dc9190610f08565b610681565b6040516100f59897969594939291906111a4565b60405180910390f35b61011860048036038101906101139190611230565b610840565b604051610125919061125d565b60405180910390f35b610148600480360381019061014391906112dd565b610858565b005b610164600480360381019061015f9190610f08565b610c08565b005b61016e610df2565b6000808473ffffffffffffffffffffffffffffffffffffffff1673ffffffffffffffffffffffffffffffffffffffff1681526020019081526020016000206000838152602001908152602001600020604051806101000160405290816000820160009054906101000a900473ffffffffffffffffffffffffffffffffffffffff1673ffffffffffffffffffffffffffffffffffffffff1673ffffffffffffffffffffffffffffffffffffffff1681526020016001820160009054906101000a900473ffffffffffffffffffffffffffffffffffffffff1673ffffffffffffffffffffffffffffffffffffffff1673ffffffffffffffffffffffffffffffffffffffff1681526020016002820154815260200160038201805461028f906113b3565b80601f01602080910402602001604051908101604052809291908181526020018280546102bb906113b3565b80156103085780601f106102dd57610100808354040283529160200191610308565b820191906000526020600020905b8154815290600101906020018083116102eb57829003601f168201915b50505050508152602001600482018054610321906113b3565b80601f016020809104026020016040519081016040528092919081815260200182805461034d906113b3565b801561039a5780601f1061036f5761010080835404028352916020019161039a565b820191906000526020600020905b81548152906001019060200180831161037d57829003601f168201915b50505050508152602001600582015481526020016006820160009054906101000a900460ff161515151581526020016006820160019054906101000a900460ff161515151581525050905092915050565b6000806000808573ffffffffffffffffffffffffffffffffffffffff1673ffffffffffffffffffffffffffffffffffffffff1681526020019081526020016000206000848152602001908152602001600020604051806101000160405290816000820160009054906101000a900473ffffffffffffffffffffffffffffffffffffffff1673ffffffffffffffffffffffffffffffffffffffff1673ffffffffffffffffffffffffffffffffffffffff1681526020016001820160009054906101000a900473ffffffffffffffffffffffffffffffffffffffff1673ffffffffffffffffffffffffffffffffffffffff1673ffffffffffffffffffffffffffffffffffffffff1681526020016002820154815260200160038201805461050f906113b3565b80601f016020809104026020016040519081016040528092919081815260200182805461053b906113b3565b80156105885780601f1061055d57610100808354040283529160200191610588565b820191906000526020600020905b81548152906001019060200180831161056b57829003601f168201915b505050505081526020016004820180546105a1906113b3565b80601f01602080910402602001604051908101604052809291908181526020018280546105cd906113b3565b801561061a5780601f106105ef5761010080835404028352916020019161061a565b820191906000526020600020905b8154815290600101906020018083116105fd57829003601f168201915b50505050508152602001600582015481526020016006820160009054906101000a900460ff161515151581526020016006820160019054906101000a900460ff16151515158152505090508060e00151801561067857508060c00151155b91505092915050565b6000602052816000526040600020602052806000526040600020600091509150508060000160009054906101000a900473ffffffffffffffffffffffffffffffffffffffff16908060010160009054906101000a900473ffffffffffffffffffffffffffffffffffffffff1690806002015490806003018054610703906113b3565b80601f016020809104026020016040519081016040528092919081815260200182805461072f906113b3565b801561077c5780601f106107515761010080835404028352916020019161077c565b820191906000526020600020905b81548152906001019060200180831161075f57829003601f168201915b505050505090806004018054610791906113b3565b80601f01602080910402602001604051908101604052809291908181526020018280546107bd906113b3565b801561080a5780601f106107df5761010080835404028352916020019161080a565b820191906000526020600020905b8154815290600101906020018083116107ed57829003601f168201915b5050505050908060050154908060060160009054906101000a900460ff16908060060160019054906101000a900460ff16905088565b60016020528060005260406000206000915090505481565b6000808773ffffffffffffffffffffffffffffffffffffffff1673ffffffffffffffffffffffffffffffffffffffff168152602001908152602001600020600086815260200190815260200160002060060160019054906101000a900460ff16156108ef576040517fc68e50c000000000000000000000000000000000000000000000000000000000815260040160405180910390fd5b6040518061010001604052803373ffffffffffffffffffffffffffffffffffffffff1681526020018773ffffffffffffffffffffffffffffffffffffffff16815260200186815260200185858080601f016020809104026020016040519081016040528093929190818152602001838380828437600081840152601f19601f82011690508083019250505050505050815260200183838080601f016020809104026020016040519081016040528093929190818152602001838380828437600081840152601f19601f820116905080830192505050505050508152602001428152602001600015158152602001600115158152506000808873ffffffffffffffffffffffffffffffffffffffff1673ffffffffffffffffffffffffffffffffffffffff168152602001908152602001600020600087815260200190815260200160002060008201518160000160006101000a81548173ffffffffffffffffffffffffffffffffffffffff021916908373ffffffffffffffffffffffffffffffffffffffff16021790555060208201518160010160006101000a81548173ffffffffffffffffffffffffffffffffffffffff021916908373ffffffffffffffffffffffffffffffffffffffff160217905550604082015181600201556060820151816003019081610adf91906115bf565b506080820151816004019081610af591906115bf565b5060a0820151816005015560c08201518160060160006101000a81548160ff02191690831515021790555060e08201518160060160016101000a81548160ff021916908315150217905550905050600160008773ffffffffffffffffffffffffffffffffffffffff1673ffffffffffffffffffffffffffffffffffffffff1681526020019081526020016000206000815480929190610b93906116c0565b9190505550848673ffffffffffffffffffffffffffffffffffffffff163373ffffffffffffffffffffffffffffffffffffffff167f46963754159bfaa34ce1015ddd2bb18e97c8973e9cea574c0c12c928439e1a288787604051610bf8929190611744565b60405180910390a4505050505050565b60008060008473ffffffffffffffffffffffffffffffffffffffff1673ffffffffffffffffffffffffffffffffffffffff168152602001908152602001600020600083815260200190815260200160002090508060060160019054906101000a900460ff16610ca3576040517fc5723b5100000000000000000000000000000000000000000000000000000000815260040160405180910390fd5b3373ffffffffffffffffffffffffffffffffffffffff168160000160009054906101000a900473ffffffffffffffffffffffffffffffffffffffff1673ffffffffffffffffffffffffffffffffffffffff1614610d2c576040517fea8e4eb500000000000000000000000000000000000000000000000000000000815260040160405180910390fd5b8060060160009054906101000a900460ff1615610d75576040517f905e710700000000000000000000000000000000000000000000000000000000815260040160405180910390fd5b60018160060160006101000a81548160ff021916908315150217905550818373ffffffffffffffffffffffffffffffffffffffff163373ffffffffffffffffffffffffffffffffffffffff167f9793d8fee34d53ba14b623e366b6e4f28e59d98724b0f633654e2e20fcd9910d60405160405180910390a4505050565b604051806101000160405280600073ffffffffffffffffffffffffffffffffffffffff168152602001600073ffffffffffffffffffffffffffffffffffffffff168152602001600080191681526020016060815260200160608152602001600081526020016000151581526020016000151581525090565b600080fd5b600080fd5b600073ffffffffffffffffffffffffffffffffffffffff82169050919050565b6000610e9f82610e74565b9050919050565b610eaf81610e94565b8114610eba57600080fd5b50565b600081359050610ecc81610ea6565b92915050565b6000819050919050565b610ee581610ed2565b8114610ef057600080fd5b50565b600081359050610f0281610edc565b92915050565b60008060408385031215610f1f57610f1e610e6a565b5b6000610f2d85828601610ebd565b9250506020610f3e85828601610ef3565b9150509250929050565b610f5181610e94565b82525050565b610f6081610ed2565b82525050565b600081519050919050565b600082825260208201905092915050565b60005b83811015610fa0578082015181840152602081019050610f85565b60008484015250505050565b6000601f19601f8301169050919050565b6000610fc882610f66565b610fd28185610f71565b9350610fe2818560208601610f82565b610feb81610fac565b840191505092915050565b6000819050919050565b61100981610ff6565b82525050565b60008115159050919050565b6110248161100f565b82525050565b6000610100830160008301516110436000860182610f48565b5060208301516110566020860182610f48565b5060408301516110696040860182610f57565b50606083015184820360608601526110818282610fbd565b9150506080830151848203608086015261109b8282610fbd565b91505060a08301516110b060a0860182611000565b5060c08301516110c360c086018261101b565b5060e08301516110d660e086018261101b565b508091505092915050565b600060208201905081810360008301526110fb818461102a565b905092915050565b61110c8161100f565b82525050565b60006020820190506111276000830184611103565b92915050565b61113681610e94565b82525050565b61114581610ed2565b82525050565b600082825260208201905092915050565b600061116782610f66565b611171818561114b565b9350611181818560208601610f82565b61118a81610fac565b840191505092915050565b61119e81610ff6565b82525050565b6000610100820190506111ba600083018b61112d565b6111c7602083018a61112d565b6111d4604083018961113c565b81810360608301526111e6818861115c565b905081810360808301526111fa818761115c565b905061120960a0830186611195565b61121660c0830185611103565b61122360e0830184611103565b9998505050505050505050565b60006020828403121561124657611245610e6a565b5b600061125484828501610ebd565b91505092915050565b60006020820190506112726000830184611195565b92915050565b600080fd5b600080fd5b600080fd5b60008083601f84011261129d5761129c611278565b5b8235905067ffffffffffffffff8111156112ba576112b961127d565b5b6020830191508360018202830111156112d6576112d5611282565b5b9250929050565b600080600080600080608087890312156112fa576112f9610e6a565b5b600061130889828a01610ebd565b965050602061131989828a01610ef3565b955050604087013567ffffffffffffffff81111561133a57611339610e6f565b5b61134689828a01611287565b9450945050606087013567ffffffffffffffff81111561136957611368610e6f565b5b61137589828a01611287565b92509250509295509295509295565b7f4e487b7100000000000000000000000000000000000000000000000000000000600052602260045260246000fd5b600060028204905060018216806113cb57607f821691505b6020821081036113de576113dd611384565b5b50919050565b7f4e487b7100000000000000000000000000000000000000000000000000000000600052604160045260246000fd5b60008190508160005260206000209050919050565b60006020601f8301049050919050565b600082821b905092915050565b6000600883026114757fffffffffffffffffffffffffffffffffffffffffffffffffffffffffffffffff82611438565b61147f8683611438565b95508019841693508086168417925050509392505050565b6000819050919050565b60006114bc6114b76114b284610ff6565b611497565b610ff6565b9050919050565b6000819050919050565b6114d6836114a1565b6114ea6114e2826114c3565b848454611445565b825550505050565b600090565b6114ff6114f2565b61150a8184846114cd565b505050565b5b8181101561152e576115236000826114f7565b600181019050611510565b5050565b601f8211156115735761154481611413565b61154d84611428565b8101602085101561155c578190505b61157061156885611428565b83018261150f565b50505b505050565b600082821c905092915050565b600061159660001984600802611578565b1980831691505092915050565b60006115af8383611585565b9150826002028217905092915050565b6115c882610f66565b67ffffffffffffffff8111156115e1576115e06113e4565b5b6115eb82546113b3565b6115f6828285611532565b600060209050601f8311600181146116295760008415611617578287015190505b61162185826115a3565b865550611689565b601f19841661163786611413565b60005b8281101561165f5784890151825560018201915060208501945060208101905061163a565b8683101561167c5784890151611678601f891682611585565b8355505b6001600288020188555050505b505050505050565b7f4e487b7100000000000000000000000000000000000000000000000000000000600052601160045260246000fd5b60006116cb82610ff6565b91507fffffffffffffffffffffffffffffffffffffffffffffffffffffffffffffffff82036116fd576116fc611691565b5b600182019050919050565b82818337600083830152505050565b6000611723838561114b565b9350611730838584611708565b61173983610fac565b840190509392505050565b6000602082019050818103600083015261175f818486611717565b9050939250505056fea2646970667358221220e7ef64875b8cd96dd52f74032ef8fce6d7fef505c6d8a7f59a8a9463438b8dbf64736f6c63430008140033",
  "linkReferences": {},
  "deployedLinkReferences": {}
}